{
  "_format": "hh-sol-artifact-1",
  "contractName": "OpenDonationSplitter",
  "sourceName": "contracts/Donate.sol",
  "abi": [
    {
      "inputs": [
        {
          "internalType": "address[]",
          "name": "recipients",
          "type": "address[]"
        },
        {
          "internalType": "uint256[]",
          "name": "percentages",
          "type": "uint256[]"
        }
      ],
      "name": "donateAndSplit",
      "outputs": [],
      "stateMutability": "payable",
      "type": "function"
    }
  ],
  "bytecode": "0x6080604052348015600f57600080fd5b506107f98061001f6000396000f3fe60806040526004361061001e5760003560e01c80632fb6b27614610023575b600080fd5b61003d6004803603810190610038919061034c565b61003f565b005b6000349050600083839050868690501461008e576040517f08c379a00000000000000000000000000000000000000000000000000000000081526004016100859061042a565b60405180910390fd5b600082116100d1576040517f08c379a00000000000000000000000000000000000000000000000000000000081526004016100c890610496565b60405180910390fd5b60005b84849050811015610113578484828181106100f2576100f16104b6565b5b9050602002013582610104919061051e565b915080806001019150506100d4565b506127108114610158576040517f08c379a000000000000000000000000000000000000000000000000000000000815260040161014f906105c4565b60405180910390fd5b60005b8686905081101561027e57600061271086868481811061017e5761017d6104b6565b5b905060200201358561019091906105e4565b61019a9190610655565b905060008888848181106101b1576101b06104b6565b5b90506020020160208101906101c691906106e4565b73ffffffffffffffffffffffffffffffffffffffff16826040516101e990610742565b60006040518083038185875af1925050503d8060008114610226576040519150601f19603f3d011682016040523d82523d6000602084013e61022b565b606091505b505090508061026f576040517f08c379a0000000000000000000000000000000000000000000000000000000008152600401610266906107a3565b60405180910390fd5b5050808060010191505061015b565b50505050505050565b600080fd5b600080fd5b600080fd5b600080fd5b600080fd5b60008083601f8401126102b6576102b5610291565b5b8235905067ffffffffffffffff8111156102d3576102d2610296565b5b6020830191508360208202830111156102ef576102ee61029b565b5b9250929050565b60008083601f84011261030c5761030b610291565b5b8235905067ffffffffffffffff81111561032957610328610296565b5b6020830191508360208202830111156103455761034461029b565b5b9250929050565b6000806000806040858703121561036657610365610287565b5b600085013567ffffffffffffffff8111156103845761038361028c565b5b610390878288016102a0565b9450945050602085013567ffffffffffffffff8111156103b3576103b261028c565b5b6103bf878288016102f6565b925092505092959194509250565b600082825260208201905092915050565b7f4d69736d617463686564206172726179206c656e677468730000000000000000600082015250565b60006104146018836103cd565b915061041f826103de565b602082019050919050565b6000602082019050818103600083015261044381610407565b9050919050565b7f4d7573742073656e642045544800000000000000000000000000000000000000600082015250565b6000610480600d836103cd565b915061048b8261044a565b602082019050919050565b600060208201905081810360008301526104af81610473565b9050919050565b7f4e487b7100000000000000000000000000000000000000000000000000000000600052603260045260246000fd5b6000819050919050565b7f4e487b7100000000000000000000000000000000000000000000000000000000600052601160045260246000fd5b6000610529826104e5565b9150610534836104e5565b925082820190508082111561054c5761054b6104ef565b5b92915050565b7f546f74616c2070657263656e7461676573206d75737420657175616c2031303060008201527f2028313030252900000000000000000000000000000000000000000000000000602082015250565b60006105ae6027836103cd565b91506105b982610552565b604082019050919050565b600060208201905081810360008301526105dd816105a1565b9050919050565b60006105ef826104e5565b91506105fa836104e5565b9250828202610608816104e5565b9150828204841483151761061f5761061e6104ef565b5b5092915050565b7f4e487b7100000000000000000000000000000000000000000000000000000000600052601260045260246000fd5b6000610660826104e5565b915061066b836104e5565b92508261067b5761067a610626565b5b828204905092915050565b600073ffffffffffffffffffffffffffffffffffffffff82169050919050565b60006106b182610686565b9050919050565b6106c1816106a6565b81146106cc57600080fd5b50565b6000813590506106de816106b8565b92915050565b6000602082840312156106fa576106f9610287565b5b6000610708848285016106cf565b91505092915050565b600081905092915050565b50565b600061072c600083610711565b91506107378261071c565b600082019050919050565b600061074d8261071f565b9150819050919050565b7f5472616e73666572206661696c65640000000000000000000000000000000000600082015250565b600061078d600f836103cd565b915061079882610757565b602082019050919050565b600060208201905081810360008301526107bc81610780565b905091905056fea26469706673582212209242dbe89d00b68857f0351e6fcc3fb96df14cd2fcf2df382e6f26268d1bc99564736f6c634300081c0033",
  "linkReferences": {},
  "deployedLinkReferences": {}
}